:060000000A128A11122809
:10000800FE00030EF0000408F1000A08F200831253
:1000180003137F08F3000A128A1137280A128A117B
:100028004A280130831603138600831203138601BE
:1000380083160313870183120313870190308B0003
:10004800252801308312031387064130F500EE306E
:10005800F400F40B2D28F50B2D28640025282528FD
:100068000A128A1112288B1C3A283B283F28023092
:1000780087068B103F287308FF0072088A007108F2
:100088008400700E8300FE0E7E0E090083010A12A2
:040098008A1115288C
:02400E003A3F37
:00000001FF
